:020000040800F2
:10000000000500200101000861080008FF04000845
:100010005D08000839030008E72000080000000020
:10002000000000000000000000000000291100088E
:100030003D03000800000000F50F000889130008C8
:100040001B0100081B0100081B0100081B01000820
:100050001B0100081B0100081B0100081B01000810
:100060001B0100081B0100081B0100081B01000800
:100070001B0100081B0100081B0100081B010008F0
:100080001B0100081B0100081B0100081B010008E0
:100090001B0100081B0100081B0100081B010008D0
:1000A0001B010008151700081B0100081B010008B0
:1000B00055190008011A00081B0100081B0100085F
:1000C0001B0100081B0100081B0100081B010008A0
:1000D0001B0100081B0100088D1E00081B01000801
:1000E0001B0100081B0100081B010008DFF80CD0F1
:1000F00000F010F9004800470D2700080005002017
:100100000648804706480047FEE7FEE7FEE7FEE7B1
:10011000FEE7FEE7FEE7FEE7FEE7FEE78D130008D9
:10012000ED000008F0B480EA0102D40F4200B2EB07
:10013000410F02D20246084611464A0042D0C30D82
:10014000DDB2C1F3C752AD1A202D35DAC1F3160165
:1001500041F4000204B15242C5F1200602FA06F150
:100160002A411044B3EBD05F23D0C4B1012DA0EBE2
:10017000C35009DCF0BC4FF0004202EAC352DBB2CC
:1001800000F5000000F097B8400000F1807000EB2F
:10019000C350A0F1807040EAD170490009E04908DD
:1001A00041EAC071A0EBC35000F50000400800EB2D
:1001B000C350F0BC00F076B86142012202EB41016D
:1001C000001BF6E7F0BC704781F00041AAE780F021
:1001D0000040A7E780EA010210B502F000434000AA
:1001E00022D04A001FD0010E01EB1261C0F356006D
:1001F000C2F3560240F4000042F40002A0FB0220C9
:1002000000047F39140400D0401C50EA124001D48D
:100210004000491EC2B20C0604EBD010401C40083E
:10022000802A02D003E0002010BD20F00100002948
:1002300000DA0020184310BDC10F80EAE0700844C6
:10024000CA079623002100F036B800F0004220F0E3
:100250000040C10DC0F3160040F400007F2901DA10
:1002600000207047962903DCC1F19601C84001E0E7
:1002700096398840002AF4D040427047002801DBBC
:10028000C0F10040002901DBC1F10041814270470B
:10029000002801DBC0F10040002901DBC1F1004171
:1002A000884270470029A8BF7047401C490008BF1A
:1002B00020F00100704710B4B0FA80FC00FA0CF096
:1002C00050EA010404BF10BC704749B1CCF12004CE
:1002D00021FA04F411FA0CF118BF0121214308435B
:1002E000A3EB0C01CB1D4FEA00614FEA102042BF87
:1002F000002010BC704700EBC35010440029A4BF7D
:1003000010BC7047401C490008BF20F0010010BC21
:1003100070470000064C074D06E0E06840F001031E
:1003200094E8070098471034AC42F6D3FFF7E2FE9A
:100330005C3300087C33000800BFFEE770472DE9FE
:10034000F04102460025002600200023002400275B
:1003500091F803C00CF00F0591F803C00CF0100CDD
:10036000BCF1000F03D091F802C04CEA050591F8EA
:1003700000C0BCF1000F31D0146800202BE04FF01A
:10038000010C0CFA00F3B1F800C00CEA03069E421F
:1003900020D183004FF00F0C0CFA03F7BC4305FA91
:1003A00003FC4CEA040491F803C0BCF1280F06D109
:1003B0004FF0010C0CFA00FCC2F814C00AE091F8EE
:1003C00003C0BCF1480F05D14FF0010C0CFA00FC42
:1003D000C2F810C0401C0828D1D31460B1F800C086
:1003E000BCF1FF0F34DD546800202EE000F1080C52
:1003F0004FF0010808FA0CF3B1F800C00CEA03064C
:100400009E4221D183004FF00F0C0CFA03F7BC433E
:1004100005FA03FC4CEA040491F803C0BCF1280F70
:1004200005D100F1080C08FA0CF8C2F8148091F814
:1004300003C0BCF1480F07D100F1080C4FF00108D0
:1004400008FA0CF8C2F81080401C0828CED354607B
:10045000BDE8F081F0B50A46002300240021002504
:1004600000F00046B6F1004F02D11D4EF16901E0E7
:100470001B4E7168C0F3034583B200F44016B6F515
:10048000401F08D121F07061154E766826F0706625
:10049000134F7E6012E000F48016B6F5801F06D17F
:1004A000032606FA05F4A14341F0706106E0460D0B
:1004B000360103FA06F6B14341F0706122B1460DF0
:1004C000360103FA06F6314300F00046B6F1004F5C
:1004D00002D1034EF16101E0014E7160F0BD0000F8
:1004E000000001400246002093680B400BB1012040
:1004F00000E000207047416170470161704700BF14
:10050000FEE7000008B50121082000F085FD01216B
:10051000084600F081FD01210A48FFF79BFF3020CB
:10052000ADF8000010208DF8030003208DF80200C4
:1005300069460548FFF703FF30210348FFF7DDFF59
:1005400008BD000000023000000C014070B50446F8
:100550001548006820F470201349086008460068B8
:1005600040F440300860002010490860002517E082
:10057000E0090E49091F08606006040E022001F020
:100580009BFF01200A49C1F89401022001F094FF69
:10059000002006490860022001F08EFF681CC5B2E9
:1005A000082DE5DB70BD0000000C01409481214264
:1005B0000080214210B50F48006820F470200D49DA
:1005C00008600846006840F44030086001200A498D
:1005D00008600A49C1F89401042001F06DFF002071
:1005E00005490860042001F067FF00200349C1F8B5
:1005F000940110BD000C01409081214200802142F5
:1006000010B50F48006820F470200D4908600846B6
:10061000006840F44030086000200A4908600A4938
:10062000C1F89001042001F047FF0120054908604E
:100630000549C1F89001042001F03EFF10BD000003
:10064000000C0140948121420080214210B5002419
:100650001448006820F470201249086008460068B9
:1006600040F40020086001200F49086001F024FFD9
:1006700001200E49C1F8940101F01EFF07E0601C43
:10068000C4B2FA2C03DDFFF7BBFF012010BD064802
:10069000803800680028F2D10349091D086000BFB6
:1006A000F4E70000000C01409081214200802142CB
:1006B0000A480088012802D002280DD105E0002058
:1006C000074908700549088006E0012004490870C0
:1006D00000200249088000BF00BF70477200002060
:1006E0002800002010B500F059F82449087024486B
:1006F0000078097848402149097808402149087064
:100700001F4800781D49097848401C4909788843EA
:100710001D4908701948007819490870194800786F
:10072000012804D0022811D0032825D11DE0174943
:1007300017480068FFF7F6FC15490860154800885F
:1007400000F5C87000B21349088015E00F49104841
:100750000068FFF739FD0E4908600E480088A0F5D3
:10076000C87000B20B49088006E00B48007880F0A2
:1007700001000949087000BF00BF10BD3E00002005
:10078000400000203F000020410000200000A04069
:1007900014000020220000202800002010B50024B2
:1007A00002210A48FFF79EFE00B9012420210848D3
:1007B000FFF798FE00B902244FF400410448FFF708
:1007C00091FE00B90324204610BD0000000C01403A
:1007D0000008014008B50121082000F01DFC482058
:1007E0008DF803000220ADF8000003208DF8020010
:1007F00069460B48FFF7A3FD0121042000F00CFC23
:1008000048F22000ADF8000048208DF803000320D6
:100810008DF8020069460348FFF791FD08BD00000E
:10082000000C01400008014008B50121082000F03B
:10083000F3FB0120ADF8000010208DF80300032029
:100840008DF8020069460448FFF779FD012102484E
:10085000FFF753FE08BD0000000C014000BFFEE79B
:100860007047000070B5002100230F22C47804B344
:10087000154C246804F4E064C4F5E064210AC1F175
:100880000403CA40447804FA03F1847814402143F5
:1008900009010E4C0678A155047804F01F050124C7
:1008A000AC4005786D11AD0005F1E025C5F80041BB
:1008B00009E0047804F01F050124AC40044D0678DB
:1008C000761145F8264070BD0CED00E000E400E034
:1008D00080E100E002490143024A116070470000D4
:1008E0000000FA050CED00E010B50446FFF762FECB
:1008F0007820FFF72BFEFFF7A9FE18B1FFF780FE67
:10090000012010BD0020FFF721FEFFF79FFE18B168
:10091000FFF776FE0120F4E72046FFF717FEFFF70A
:1009200095FE18B1FFF76CFE0120EAE7FFF768FEBD
:100930000020E6E710B50446FFF73CFE7820FFF7FD
:1009400005FEFFF783FE18B1FFF75AFE012010BD28
:100950004020FFF7FBFDFFF779FE18B1FFF750FECF
:100960000120F4E72046FFF7F1FDFFF76FFE18B115
:10097000FFF746FE0120EAE7FFF742FE0020E6E728
:1009800070B50646002415E004F1B001C8B2FFF7C7
:10099000ABFF0020FFF7A8FF1020FFF7A5FF002501
:1009A00004E03046FFF7C6FF681CC5B2802DF8DBB7
:1009B000601CC4B2082CE7DB70BD10B5FFF7A2FDC8
:1009C000642001F053FDAE20FFF78EFF2020FFF7DB
:1009D0008BFF1020FFF788FFB020FFF785FFC820AE
:1009E000FFF782FFA120FFF77FFF0020FFF77CFFCA
:1009F0001020FFF779FF4020FFF776FF8120FFF7F7
:100A000073FFFF20FFF770FFA620FFF76DFFA82000
:100A1000FFF76AFF3F20FFF767FFA420FFF764FF9F
:100A2000D320FFF761FF0020FFF75EFFD520FFF71F
:100A30005BFFF020FFF758FFD920FFF755FF22207A
:100A4000FFF752FFDA20FFF74FFF1220FFF74CFFAE
:100A5000DB20FFF749FF2020FFF746FF8D20FFF73F
:100A600043FF1420FFF740FFAF20FFF73DFF0020BA
:100A7000FFF786FF10BD70B504460D4605F1B001C5
:100A8000C8B2FFF731FF102141EA1410FFF72CFF25
:100A900004F00F0141F00100FFF726FF70BD0000D8
:100AA0002DE9FF5F044615461E46002D08DA6D420B
:100AB000A11FC8B2334640A2019900F029F906E00F
:100AC000A11FC8B233463DA2019900F021F90A20C6
:100AD00095FBF0F100FB1157642095FBF0F100FB52
:100AE00011500A2190FBF1F84FF47A7095FBF0F168
:100AF00000FB1150642190FBF1F942F2107095FB5C
:100B0000F0F100FB11504FF47A7190FBF1FA42F2D0
:100B1000107095FBF0FB012E24D133465A46204637
:100B2000019900F075F8A11DC8B2334652460199EB
:100B300000F06EF804F10C01C8B233464A46019940
:100B400000F066F804F11201C8B23346424601993A
:100B500000F05EF804F11801C8B233463A46019934
:100B600000F056F8022E25D133465A462046019908
:100B700000F04EF804F10801C8B23346524601991C
:100B800000F046F804F11001C8B233464A46019914
:100B900000F03EF804F11801C8B23346424601990C
:100BA00000F036F804F12001C8B233463A46019904
:100BB00000F02EF8BDE8FF9F2D000000200000008F
:100BC00010B5044601230EA20721422000F0A0F830
:100BD000002C07DA01230CA207215A2000F098F814
:100BE000644205E0012309A207215A2000F090F891
:100BF000012322460721602000F02CF910BD0000DF
:100C000050574D3A000000002D0000002000000069
:100C10002DE9F84F0646884691469A46002700245B
:100C2000002509F13000C0B28DF8000000208DF8D9
:100C30000100BAF1010F03D0BAF1020F60D126E032
:100C400020E01DF805002038C7B27E2E04DD002606
:100C500008F1010000F0FF0841463046FFF70BFFA6
:100C6000002409E007EB4701274A02EB4101085D38
:100C7000FFF760FE601CC4B2062CF3DBB01DC6B2E9
:100C8000681CC5B21DF805000028DAD138E032E052
:100C90001DF805002038C7B2782E04DD002608F1C3
:100CA000010000F0FF0841463046FFF7E4FE002453
:100CB00007E004EB0711154A505CFFF73BFE601C90
:100CC000C4B2082CF5DB08F10100C1B23046FFF7D1
:100CD000D2FE002408E004EB071108310B4A505CF7
:100CE000FFF728FE601CC4B2082CF4DB06F10800F4
:100CF000C6B2681CC5B21DF805000028C8D100BFE7
:100D000000BFBDE8F88F0000442B00086C2D0008E0
:100D10002DE9F0470646894617469A464FF00008E7
:100D200000240025BAF1010F03D0BAF1020F5ED101
:100D300025E020E0785D203800F0FF087E2E04DDFD
:100D4000002609F1010000F0FF0949463046FFF78F
:100D500092FE002409E008EB4801264A02EB41011B
:100D6000085DFFF7E7FD601CC4B2062CF3DBB01D85
:100D7000C6B2681CC5B2785D0028DBD137E032E02E
:100D8000785D203800F0FF08782E04DD002609F198
:100D9000010000F0FF0949463046FFF76CFE0024D1
:100DA00007E004EB0811144A505CFFF7C3FD601C18
:100DB000C4B2082CF5DB09F10100C1B23046FFF7DF
:100DC0005AFE002408E004EB081108310A4A505C7E
:100DD000FFF7B0FD601CC4B2082CF4DB06F108007C
:100DE000C6B2681CC5B2785D0028C9D100BF00BF7B
:100DF000BDE8F087442B00086C2D000810B50446B0
:100E0000012312A200210846FFF782FF2278012366
:100E100000213020FFF7FCFE6278012300213820FA
:100E2000FFF7F6FEA278012300214020FFF7F0FE35
:100E3000E278012300214820FFF7EAFE227901230E
:100E400000215020FFF7E4FE10BD000054726163E2
:100E5000653A00002DE9F05F04460F4615461E4630
:100E60000A20B5FBF0F100FB11586420B5FBF0F14E
:100E700000FB11500A21B0FBF1F94FF47A70B5FB79
:100E8000F0F100FB11506421B0FBF1FA42F2107056
:100E9000B5FBF0F100FB11504FF47A71B0FBF1FBA0
:100EA000012E1CD133465A4639462046FFF7B0FE84
:100EB000A11DC8B2334652463946FFF7A9FE04F1D8
:100EC0000C01C8B233464A463946FFF7A1FE04F189
:100ED0001201C8B2334642463946FFF799FE022E48
:100EE0001DD133465A4639462046FFF791FE04F19C
:100EF0000801C8B2334652463946FFF789FE04F16D
:100F00001001C8B233464A463946FFF781FE04F164
:100F10001801C8B2334642463946FFF779FEBDE8AC
:100F2000F09F000010B501232448027800215C20C6
:100F3000FFF76EFE01232248027819465C20FFF776
:100F400067FE2048FFF75AFF1F480068FFF77DF94A
:100F50000446FFF735FE01231CA202210020FFF703
:100F6000D7FE01231C48027819464820FFF750FE9F
:100F700001231A48B0F9002002213C20FFF790FD20
:100F8000012317A204210020FFF7C2FE16480068C3
:100F9000FFF75BF904460123224604213C20FFF7BA
:100FA0007FFD1248007820B101211148FFF7A3FA14
:100FB00003E001210E48FFF7A0FA10BD2800002031
:100FC0002D0000202E00002008000020706F7369A3
:100FD00074696F6E3A0000002400002018000020A1
:100FE00073706565643A0000000000202600002050
:100FF000000C01407047000029B1064AD269024343
:10100000044BDA6104E0034AD2698243014BDA619E
:10101000704700000010024029B1064A926902435D
:10102000044B9A6104E0034A92698243014B9A613E
:10103000704700000010024030B50021002200245B
:1010400000232D4D6D6805F00C0121B1042905D058
:10105000082923D105E0294D056022E0274D0560D0
:101060001FE0254D6D6805F47012234D6D6805F481
:101070008034022505EB92421CB9214D5543056091
:101080000BE01D4D6D6805F400351DB11C4D554339
:10109000056002E0194D5543056002E0174D0560FB
:1010A00000BF00BF144D6D6805F0F0010909154D32
:1010B0006B5C0568DD4045600F4D6D6805F4E061CF
:1010C000090A104D6B5C4568DD4085600A4D6D680E
:1010D00005F46051C90A0B4D6B5C4568DD40C56085
:1010E000054D6D6805F44041890B074D6B5CC56883
:1010F000B5FBF3F5056130BD0010024000127A0027
:1011000000093D00580000206800002070B5054629
:1011100029460448FFF7E6F908B9012400E0002455
:10112000204670BD000C01407047000000B587B03C
:1011300001214804FFF760FF01210420FFF76CFF45
:1011400018208DF807000420ADF8040003208DF866
:10115000060001A92048FFF7F2F848208DF80700A3
:101160000820ADF8040003208DF8060001A91A48F4
:10117000FFF7E5F84FF4E13003900020ADF81800D8
:101180000C20ADF816000020ADF81400ADF81200E8
:10119000ADF8100003A9114800F034FF012240F21D
:1011A00025510E4800F009FF4FF4A060FFF792FBB5
:1011B00026208DF8080001208DF80B008DF809001D
:1011C0008DF80A0002A8FFF74DFB0121034800F04B
:1011D000BEFE07B000BD0000000801400044004012
:1011E00010B500F001F810BD0CB500200190009082
:1011F0003348006840F480303149086000BF30480F
:10120000006800F4003000900198401C01900098A4
:1012100018B90198B0F5A06FF1D12948006800F421
:10122000003010B10120009001E0002000900098F3
:10123000012843D12348006840F01000214908608C
:101240000846006820F0030008600846006840F087
:10125000020008601A48406819494860084640681A
:1012600048600846406840F480604860084640682E
:1012700020F47C1048600846406840F4E81048605C
:101280000846006840F08070086000BF0C480068A5
:1012900000F000700028F9D00948406820F00300F1
:1012A000074948600846406840F00200486000BFB7
:1012B0000348406800F00C000828F9D10CBD00007C
:1012C000001002400020024070B505460E49284635
:1012D000FEF780FF0646FEF7B8FF0446002C09DD46
:1012E00001F0F2F909480088204481B2084800F072
:1012F00040FD08E001F0DAF904480088001B81B2E3
:10130000034800F036FD70BD0000904276000020DA
:10131000002C014070B505460E492846FEF75AFFDD
:101320000646FEF792FF0446002C09DD01F0FCFBA7
:1013300009480088204481B2084800F018FD08E000
:1013400001F0E4FB04480088001B81B2034800F070
:101350000EFD70BD0000904276000020002C014080
:10136000042808D14FF0E021096941F004014FF051
:10137000E022116107E04FF0E021096921F004014A
:101380004FF0E022116170477047000010B513481C
:10139000006840F0010011490860084640681049A3
:1013A00008400E494860084600680E4908400B494D
:1013B00008600846006820F48020086008464068FD
:1013C00020F4FE0048604FF41F008860FFF708FF1C
:1013D0004FF000600449086010BD0000001002409A
:1013E0000000FFF8FFFFF6FE08ED00E0F0B50C4648
:1013F000154600220021068C4FF6FE773E400684FB
:10140000028B018C4FF60C7632407E1C06EA0316E6
:101410002E433243104EB0420ED0104EB0420BD08D
:10142000B0F1804F08D00E4EB04205D00D4EB04204
:1014300002D00D4EB04206D14FF6FD76314044F059
:101440000106314305E04FF6F576314044F00106E0
:10145000314302830184F0BD002C0140003401407F
:101460000004004000080040000C0040F0B50C46AD
:101470001546002200210026078C4FF6EF7C07EA74
:101480000C070784028B018C4FF6FF7707EA0416DE
:1014900040F6FF473A404FF6FF7707EA03373A43F3
:1014A0004FF6FF7707EA05273A43114FB8420ED0AF
:1014B000104FB8420BD0B0F1804F08D00E4FB84259
:1014C00005D00E4FB84202D00D4FB84206D14FF6AC
:1014D000DF77394046F01007394305E04FF65F7774
:1014E000394044F01007394302830184F0BD000005
:1014F000002C01400034014000040040000800407E
:10150000000C0040F0B50C461546002200210026D4
:10151000078C4FF6FF6C07EA0C070784828B018C5F
:101520004FF6FF7707EA04264FF60C773A404FF65E
:10153000FF7707EA03172F433A43114FB8420ED003
:10154000104FB8420BD0B0F1804F08D00E4FB842C8
:1015500005D00E4FB84202D00D4FB84206D14FF61B
:10156000FF57394046F48077394305E04FF2FF5783
:10157000394044F48077394382830184F0BD000010
:10158000002C0140003401400004004000080040ED
:10159000000C0040F0B50C46154600220021002644
:1015A000078C4EF6FF7C07EA0C070784828B018CC0
:1015B0004FF6FF7707EA043640F6FF473A404FF60A
:1015C000FF7707EA05273A434FF6FF7707EA033725
:1015D0003A43114FB8420ED0104FB8420BD0B0F181
:1015E000804F08D00E4FB84205D00E4FB84202D0FF
:1015F0000D4FB84206D14DF6FF77394046F480577B
:10160000394305E047F6FF57394044F480573943E2
:1016100082830184F0BD0000002C014000340140B1
:101620000004004000080040000C004030B589B0C4
:1016300005460C4601210420FFF7EEFC0121C802FB
:10164000FFF7EAFC4FF41060ADF8000018208DF8A9
:10165000030003208DF8020069462C48FEF76FFE58
:10166000ADF81C50ADF818400020ADF81E00ADF8E4
:101670001A008DF8200006A9254800F0ABFB602079
:10168000ADF808000120ADF80A000020ADF8100008
:1016900002A91F4800F0CAFA02A91D4800F01CFB6D
:1016A00008211B4800F00EFB0821194800F052FBEE
:1016B0000121174800F0FCF901221146144800F0FE
:1016C000ACFA0121124800F0F9F90121104800F0AC
:1016D00001FA4FF4A060FFF7FDF819208DF804001F
:1016E00000208DF8050001208DF806008DF8070018
:1016F00001A8FFF7B7F80021054800F038FB0021EA
:10170000034800F036FB09B030BD0000000801407E
:10171000002C014070B501217B4800F00EFA002832
:101720007DD07A480088401C80B278490880B0F5A6
:101730007A7F07D176480078C04375490870002049
:101740007249088073480078012820D172480088C7
:10175000401C7149088008460088B0F5616F04D1CB
:1017600000206E4908606E4908606B48008842F2AC
:10177000107188420BD10020674908804FF08040EB
:101780006649086066490860022062490870654839
:10179000007878B164480088401C63490880084696
:1017A000008844F62061884204D100205D49087019
:1017B0005D4908805D480088401C80B25B49088014
:1017C00064287DD15A48007800287AD000F08EFC39
:1017D00001F08EF90446FEF72FFD56490860564881
:1017E000B0F90000FEF728FD05465248016828467A
:1017F000FEF798FC0446FEF728FD00B24E4908802B
:101800004E48B0F900104C48B0F9000001F094F8CF
:101810004B490860414801684948006800E071E0B0
:1018200000F060FF464908604449B1F90010424A9F
:10183000B2F90020881A01F066F8052803DA0020C2
:10184000FFF742FD0BE03E4801683A48006800F0AF
:1018500059FE3B49086008460068FFF735FD01F076
:1018600039F90446FEF7E8FC364908603648B0F915
:101870000000FEF7E1FC0546324801682846FEF705
:1018800051FC0446FEF7E1FC00B22F4908802F48C6
:10189000B0F900102C48B0F9000001F0A9F82C496B
:1018A00008601F4801682A48006800F01BFF2849AB
:1018B00008602649B1F90010234AB2F9002001E07E
:1018C0001CE015E0881A01F01EF8052803DA002054
:1018D000FFF720FD0FE01E4801681A48006800F07D
:1018E0007BFE1B49086008460068FFF713FD02E015
:1018F0000020FFF70FFD00200C490880012102485D
:1019000000F0D9F870BD0000002C01403C00002020
:1019100026000020270000203600002010000020B4
:1019200014000020290000203A000020340000208C
:1019300028000020000000201800002020000020C7
:1019400008000020040000201A00002022000020CF
:101950000C00002010B50121880700F0EEF818B146
:101960000121880700F0A7F810BD000000B587B07E
:1019700001210420FFF750FB01210846FFF73CFB43
:1019800004208DF81B000320ADF8180006A91B48A1
:10199000FEF7D5FC03A800F06FFA0020ADF81200A6
:1019A000ADF80E004FF6FF70ADF810000020ADF856
:1019B0000C0003A94FF0804000F00CFA0223002233
:1019C0000321580700F095F8684600F01DF90A2039
:1019D000ADF808006946400700F0C0F80122114642
:1019E000900700F01AF900214FF0804000F0C4F990
:1019F0000121880700F062F807B000BD000801402F
:101A000010B50121044800F098F818B101210248EE
:101A100000F051F810BD00000004004000B587B090
:101A200001210420FFF7F8FA01210220FFF7E4FA70
:101A300004208DF81B00C020ADF8180006A91A4834
:101A4000FEF77DFC03A800F017FA0020ADF81200A5
:101A5000ADF80E004FF6FF70ADF810000020ADF8A5
:101A60000C0003A9114800F0B5F900231A46032120
:101A70000E4800F03EF8684600F0C6F80A20ADF8BF
:101A800008006946094800F069F801221146074834
:101A900000F0C3F80021054800F06EF90121034869
:101AA00000F00CF807B000BD000801400004004041
:101AB000CA4302827047CA430282704721B102883A
:101AC00042F00102028004E002884FF6FE731A40E1
:101AD0000280704731B1B0F8442042F40042A0F8CF
:101AE000442005E0B0F84420C2F30E02A0F84420E0
:101AF0007047F0B50C4615461E4600210022002313
:101B00000189028B038C4FF6F877394021434FF659
:101B1000FC473A4040F201173A434FF6DD773B402D
:101B20004FF6FF7707EA06172F433B4301810283F5
:101B30000384F0BD0146888C704730B50246002012
:101B400000230024158A05EA0103958905EA0104AA
:101B500013B10CB1012000E0002030BD70B5054686
:101B60000C46244885420ED0234885420BD0B5F15F
:101B7000804F08D02148854205D02148854202D0B7
:101B80002048854200D100E000BF208850B9238959
:101B9000A28861882846FFF729FCE188284600F0E2
:101BA000EDF825E0208804280AD12389A2886188DD
:101BB0002846FFF75BFCE188284600F0E8F817E0CC
:101BC000208808280AD12389A28861882846FFF73F
:101BD00099FCE188284600F0E7F809E02389A2880B
:101BE00061882846FFF7D6FCE188284600F0E5F832
:101BF00070BD0000002C0140003401400004004092
:101C000000080040000C00400021018041800121BB
:101C100081800021C180018170471AB183890B4303
:101C2000838102E083898B438381704770B50024F0
:101C300000220023058C4FF6FE7635400584028C89
:101C40008388048B4FF68F752C40B51E2C400D8871
:101C50002C43751E2A400D892A434D882A43144D72
:101C6000A8420BD0134DA84208D0134DA84205D06E
:101C7000124DA84202D0124DA84213D14FF6F7756B
:101C80002A404D892A434FF6FB752A408D882A4306
:101C90004FF6FF652B404FF6FF552B408D892B43A8
:101CA000CD892B4383800483CD888586028470BDD3
:101CB000002C01400034014000400140004401403C
:101CC000004801400A460021018B4FF6F773194086
:101CD000114301837047000070B5002200230024E7
:101CE000058C4EF6FF7635400584038C8488828B04
:101CF00048F6FF752A404FF6FF452A400D884FF6FB
:101D0000FF7606EA05252A434DF6FF752B400D891F
:101D100006EA05352B434D8806EA05352B430B4D66
:101D2000A84202D00A4DA84208D14BF6FF752C40BC
:101D30008D894FF6FF7606EA85152C4384808283D1
:101D4000CD88A0F84050038470BD0000002C0140F5
:101D5000003401400A460021818B4FF2FF73194085
:101D60004FF6FF7303EA022319438183704781868C
:101D70007047A0F84010704781847047028B4FF67F
:101D8000F3731A400283028B0A4302837047028B6B
:101D90004FF2FF331A400283028B4FF6FF7303EAC0
:101DA00001231A4302837047828B4FF6F3731A4064
:101DB0008283828B0A4382837047828B4FF2FF3388
:101DC0001A408283828B4FF6FF7303EA01231A4382
:101DD00082837047002202881D4B98420ED01D4B13
:101DE00098420BD0B0F1804F08D01B4B984205D0E1
:101DF0001A4B984202D01A4B984204D14FF68F7377
:101E00001A404B881A43174B984207D0164B9842FA
:101E100004D04FF6FF431A40CB881A4302808B88C8
:101E200083850B8803850A4B98420BD0094B984257
:101E300008D00E4B984205D00D4B984202D00D4B66
:101E4000984201D10B7A03860123838270470000F8
:101E5000002C014000340140000400400008004014
:101E6000000C004000100040001400400040014001
:101E700000440140004801404FF6FF71818000217D
:101E80000180C180418001727047000010B540F2AE
:101E90002551234800F067F8002840D0204800F082
:101EA0001DF920490A780978491C1E4B19701E49F2
:101EB00021F8120018460078012806D1084600884B
:101EC000A32802D00020194608701648007802287E
:101ED00006D115484088B32802D000201149087067
:101EE00010480078042806D10F48C088C32802D0C3
:101EF00000200C4908700B48007804280AD1002003
:101F000008490870084800F005FD18B106488088A7
:101F10000649088040F22551014800F009F810BD3B
:101F20000044004075000020F000002072000020F6
:101F300010B50022002340F66A14A14200D100BF70
:101F40000A1201249440A3B2DC43048010BD21B1E5
:101F5000828942F40052828104E082894DF6FF7347
:101F60001A408281704770B5024600240023002584
:101F7000002040F66A16B14200D100BFC1F34215FD
:101F800001F01F03012606FA03F3012D02D1968901
:101F9000334006E0022D02D1168A334001E0968AD2
:101FA00033400C12012606FA04F41688344013B1AB
:101FB0000CB1012000E0002070BDF0B50346002404
:101FC00000260025002040F66A17B94200D100BF64
:101FD0001846C1F3421401F01F06012707FA06F55F
:101FE000012C01D10C3004E0022C01D1103000E0B2
:101FF00014301AB107682F43076002E00768AF4347
:102000000760F0BD2DE9F04786B005460E46002476
:10201000A24600BFA1460027B08900B100BF2F46ED
:102020002C8A4CF6FF700440F08804432C82AC8963
:102030004EF6F3100440B088318908437189084393
:102040000443AC81AC8A4FF6FF400440B08904439E
:10205000AC8201A8FEF7F0FF1F48874202D1DDF8ED
:1020600010A001E0DDF80CA0A88900F4004040B108
:102070000AEBCA0000EB0A1031684900B0FBF1F826
:1020800007E00AEBCA0000EB0A1031688900B0FBD8
:10209000F1F86420B8FBF0F004012009642101FB91
:1020A0001089A88900F4004040B1322000EBC9003B
:1020B000B0FBF1F000F00700044308E0322000EB31
:1020C00009106421B0FBF1F000F00F0004432C81F3
:1020D00006B0BDE8F087000000380140014688885E
:1020E000C0F30800704700BFFEE7000010B54020B5
:1020F000FFF70CF8A64908708020FFF707F8A449FD
:1021000048704FF48070FFF701F8A14988704FF4D0
:102110000070FEF7FBFF9E49C8704FF48060FEF729
:10212000F5FF9B4908714020FEF7F0FF01287BD1A5
:102130008002FEF7EBFF012876D196480078002850
:1021400072D19548007800286ED18020FEF7DEFF1E
:1021500098B94FF48070FEF7D9FF01280DD14002E5
:10216000FEF7D4FF012808D18C488D4908608D48BE
:102170008D49086001208D4908708020FEF7C6FF58
:1021800080B94FF48070FEF7C1FF58B94FF400706A
:10219000FEF7BCFF012805D18548814908608548C4
:1021A000814908608020FEF7B1FF01280ED10002AE
:1021B000FEF7ACFF50B94FF40070FEF7A7FF0128FF
:1021C00004D1800776490860774908608020FEF7CF
:1021D0009DFF01280ED10002FEF798FF50B94FF481
:1021E0000070FEF793FF28B971486F490860714885
:1021F0006B4908608020FEF789FF012812D1000298
:10220000FEF784FF0128F9D14002FEF77FFF002886
:10221000F4D162486449086062486149086002205C
:1022200062490870B3E0FFE7634800780028F9D1FD
:102230004020FEF76BFF70B95648007858B95F48E8
:10224000007840B95E480078032804DC01205B492F
:1022500008705049087059480078022827D14D4825
:102260000078012823D15748B0F90000564908806A
:102270005648B0F9000056490880002051490880AE
:10228000524908804FF0804047490860444908603F
:102290006FF0DB004F490880DC204F4908800020A8
:1022A0004649087046480078401C454908704FF47C
:1022B0008060FEF72BFF70B93748007858B93F4867
:1022C000007840B93E480078032804DC01203B49EF
:1022D00008703149087039480078022826D12E4804
:1022E0000078012822D13748B0F90000364908802B
:1022F0003648B0F90000364908800020314908808E
:10230000324908804FF0804027490860244908601E
:10231000DC203049088040422F49088000202749AE
:10232000087027480078401C254908702A49B1F9EF
:102330000010264AB2F90020881A00F0E4FA0528B5
:1023400025DA14480078012803D0134800780128C2
:102350001DD11D48B0F900001A4908801A48B0F98B
:1023600000001A49088040F6AC501A4908801A4902
:1023700008804FF080400C4908600949086000203F
:10238000044908700449087001200B49087010BD09
:102390002E0000202400002025000020CDCC0C4081
:1023A000140000206666E63F100000202A0000208E
:1023B000333303409A99F93F290000202700002079
:1023C0002D000020180000201C0000201A00002012
:1023D0001E000020200000202200002008B501215E
:1023E0000820FEF719FE48208DF803004FF4F8602E
:1023F000ADF8000003208DF8020069460148FDF7A2
:102400009EFF08BD000C014002E008C8121F08C171
:10241000002AFAD170477047002001E001C1121F65
:10242000002AFBD17047000010B56FF00400FEF7E2
:1024300097FF0A4800680A49B0FBF1F009490870A3
:102440000846007800EB4001C1EBC0104FF6FF7169
:1024500001EAC0000449088010BD000044000020CB
:1024600000127A006C0000206E0000200146114A24
:1024700012884A434FF0E0235A6100229A611A46BB
:10248000126942F001021A6100BF4FF0E0221069A8
:1024900000F001021AB100F48032002AF5D04FF0AA
:1024A000E022126922F001024FF0E0231A610022BB
:1024B0009A6170476E0000200146114A12784A4323
:1024C0004FF0E0235A6100229A611A46126942F0E5
:1024D00001021A6100BF4FF0E022106900F0010212
:1024E0001AB100F48032002AF5D04FF0E0221269D0
:1024F00022F001024FF0E0231A6100229A61704736
:102500006C0000202DE9F04704460D462946204680
:10251000FDF75DFE28490860284801684FF08040BB
:10252000FDF758FE81462648016823480068FDF7FC
:10253000F9FD82464946FDF747FE8046214801687D
:102540004046FDF747FE06461B4801681E480068E6
:10255000FDF740FE81461948016817480068FDF7FD
:1025600033FE8246194801685046FDF733FE804627
:102570004946FDF7D7FD07463146FDF7D3FD14491F
:1025800008600846016813480068FDF7CBFD114953
:1025900008600846006800F087FA0E49086007489E
:1025A0000068074908600448006804490860094851
:1025B0000068BDE8F0870000780000207C00002063
:1025C0008000002094000020900000208C0000205B
:1025D00088000020840000202DE9F04704460D46C5
:1025E00029462046FDF7F3FD284908602848016880
:1025F0004FF08040FDF7EEFD8146264801682348F4
:102600000068FDF78FFD82464946FDF7DDFD8046F7
:10261000214801684046FDF7DDFD06461B4801687C
:102620001E480068FDF7D6FD814619480168174825
:102630000068FDF7C9FD8246194801685046FDF75C
:10264000C9FD80464946FDF76DFD07463146FDF759
:1026500069FD144908600846016813480068FDF7E1
:1026600061FD114908600846006800F01DFA0E4936
:102670000860074800680749086004480068044982
:10268000086009480068BDE8F08700009800002055
:102690009C000020A0000020B4000020B00000201A
:1026A000AC000020A8000020A400002010B54FF4CA
:1026B00080410448FDF721FF4FF400410148FDF738
:1026C0001AFF10BD000C014010B54FF40041044842
:1026D000FDF713FF4FF480410148FDF70CFF10BDDB
:1026E000000C014070B505460C4621462846FDF712
:1026F000CFFD00D2254684F0004629463046FDF73E
:10270000C7FD01D284F00045284670BDFFF78CFE5E
:10271000FEF78AF800F0EAF8FEF708FDFEF74DF93B
:10272000FEF758F8FFF75AFE4FF080405049086016
:102730005049086040F6AC504F4908804F49088026
:1027400094E0FDF7CFFFFEF7EDFBFDF7B1FF4C483E
:10275000007810B1012855D155E04749B1F9001072
:10276000484AB2F90020881A00F0CDF8052802DAAC
:102770000020454908704548008803280BD10120F6
:102780004149087040F6AC503B4908803B490880FD
:1027900001203F4908703D48008804280BD10120E2
:1027A0003949087040F6AC503349088033490880F5
:1027B0000220374908704020FEF7A8FC20B14FF4F2
:1027C0008060FEF7A3FC48B931480078012805D1A4
:1027D0003049087030490870294908704020FEF7D8
:1027E00095FC20B14FF48060FEF790FC50B928486A
:1027F0000078022806D10120264908702749087070
:102800001F49087031E026480078032813D1402082
:10281000FEF77CFC20B14FF48060FEF777FC50B9E6
:102820001B480078012806D11A4908701A49087017
:102830000220134908701A480078032814D1402058
:10284000FEF764FC20B14FF48060FEF75FFC58B9DE
:102850000F480078022807D101200E4908700F495F
:10286000087002200649087000BF00BF69E7000039
:102870001400002010000020220000202000002072
:102880002B0000201A0000202800002072000020E9
:102890002C0000202700002024000020250000201C
:1028A0002D00002008B501210820FEF7B5FB4FF4EC
:1028B0004050ADF8000010208DF8030003208DF883
:1028C000020069460848FDF73AFD4FF44040ADF874
:1028D000000010208DF8030003208DF802006946E7
:1028E0000148FDF72CFD08BD000C014010B5FFF7B5
:1028F000D9FF002141F61F40FEF798FEFFF78EF842
:10290000FFF734F810BD0146002901DA484200E023
:102910000846704701460888A32801D00020704768
:102920004888B32801D00020F9E7C888C32801D01F
:102930000020F4E70120F2E72DE9F04704460D46B8
:10294000281BFDF779FC2249086008460068FDF75E
:102950007CFC0646FFF7D7FF052803DA00201D4957
:10296000086002E01C481B4908601C4801681848C0
:102970000068FDF729FC8046194801684046FDF7CC
:1029800029FC06461748016817480068FDF722FC35
:1029900080460F4801680F480068FDF71BFC814620
:1029A0004146FDF7BFFB07463146FDF7BBFB0F492C
:1029B00008600846006800F077F80C490860044891
:1029C00000680649086009480068BDE8F087000013
:1029D000B8000020C80000207B14AE3DBC000020E1
:1029E000D0000020C0000020CC000020C400002047
:1029F0002DE9F04704460D46281BFDF71DFC224932
:102A0000086008460068FDF720FC0646FFF77BFFDC
:102A1000052803DA00201D49086002E01C481B4914
:102A200008601C48016818480068FDF7CDFB804627
:102A3000194801684046FDF7CDFB06461748016876
:102A400017480068FDF7C6FB80460F4801680F482D
:102A50000068FDF7BFFB81464146FDF763FB074673
:102A60003146FDF75FFB0F4908600846006800F03B
:102A70001BF80C49086004480068064908600948CA
:102A80000068BDE8F0870000D4000020E4000020CA
:102A90007B14AE3DD8000020EC000020DC000020BC
:102AA000E8000020E000002010B504460749204659
:102AB000FDF7EEFB01D2054C05E005492046FDF788
:102AC000DDFB00D2024C204610BD00000000C642D3
:102AD0000000C6C210B54FF08040FFF72BF804B2DB
:102AE00000214FF08040FFF747F9204610BD00005D
:102AF00010B50548FFF71EF804B200210248FFF7A1
:102B00003BF9204610BD00000004004010B54FF412
:102B100080510448FDF7F1FC4FF400510148FDF7E6
:102B2000EAFC10BD000C014010B54FF40051044800
:102B3000FDF7E3FC4FF480510148FDF7DCFC10BDCC
:102B4000000C01400000000000000000002F000009
:102B500000000700070000147F147F1400242A7F60
:102B60002A120062640813230036495522500000DF
:102B70000503000000001C224100000041221C004F
:102B80000014083E08140008083E0808000000A0D1
:102B900060000008080808080000606000000020CD
:102BA00010080402003E5149453E0000427F4000AB
:102BB000004261514946002141454B310018141231
:102BC0007F10002745454539003C4A4949300001FE
:102BD0007109050300364949493600064949291E4D
:102BE00000003636000000005636000000081422AF
:102BF00041000014141414140000412214080002AF
:102C00000151090600324959513E007C1211127CD3
:102C1000007F49494936003E41414122007F414100
:102C2000221C007F49494941007F09090901003EF2
:102C30004149497A007F0808087F0000417F410030
:102C4000002040413F01007F08142241007F4040A6
:102C50004040007F020C027F007F0408107F003E8E
:102C60004141413E007F09090906003E4151215E74
:102C7000007F091929460046494949310001017F71
:102C80000101003F4040403F001F2040201F003F07
:102C90004038403F006314081463000708700807B9
:102CA00000615149454300007F41410000552A55CC
:102CB0002A55000041417F00000402010204004047
:102CC0004040404000000102040000205454547869
:102CD000007F484444380038444444200038444489
:102CE000487F00385454541800087E090102001827
:102CF000A4A4A47C007F080404780000447D400064
:102D0000004080847D00007F102844000000417F47
:102D10004000007C04180478007C08040478003823
:102D20004444443800FC242424180018242418FCAB
:102D3000007C0804040800485454542000043F4414
:102D40004020003C4040207C001C2040201C003CD7
:102D50004030403C004428102844001CA0A0A07C27
:102D6000004464544C44141414141414000000005F
:102D7000000000000000000000000000000000F85B
:102D800000000000000000333000000000100C06BE
:102D9000100C0600000000000000000040C0784059
:102DA000C0784000043F04043F040400007088FC25
:102DB00008300000001820FF211E0000F008F0007D
:102DC000E018000000211C031E211E0000F00888EE
:102DD000700000001E2123241927211010160E0058
:102DE000000000000000000000000000000000E003
:102DF0001804020000000007182040000002041818
:102E0000E00000000040201807000000404080F073
:102E1000804040000202010F01020200000000F0A9
:102E2000000000000101011F01010100000000007D
:102E30000000000080B070000000000000000000F2
:102E4000000000000001010101010101000000007B
:102E50000000000000303000000000000000000012
:102E600080601804006018060100000000E01008EF
:102E70000810E000000F102020100F00001010F8C4
:102E8000000000000020203F202000000070080803
:102E90000888700000302824222130000030088883
:102EA000884830000018202020110E000000C020AB
:102EB00010F8000000070424243F240000F80888CC
:102EC000880808000019212020110E0000E0108859
:102ED00088180000000F112020110E00003808088B
:102EE000C83808000000003F00000000007088089B
:102EF00008887000001C222121221C0000E010081C
:102F00000810E0000000312222110F00000000C074
:102F1000C000000000000030300000000000008011
:102F20000000000000008060000000000000804001
:102F3000201008000001020408102000404040401A
:102F4000404040000404040404040400000810206D
:102F500040800000002010080402010000704808B2
:102F60000808F0000000003036010000C030C8281A
:102F7000E810E0000718272423140B000000C038D5
:102F8000E0000000203C23020227382008F888884F
:102F900088700000203F202020110E00C03008085B
:102FA00008083800071820202010080008F8080832
:102FB0000810E000203F202020100F0008F888882B
:102FC000E8081000203F20202320180008F88888F7
:102FD000E8081000203F200003000000C03008086F
:102FE0000838000007182020221E020008F80800F8
:102FF0000008F808203F210101213F20000808F8BF
:10300000080800000020203F2020000000000808E1
:10301000F8080800C08080807F00000008F888C0A1
:1030200028180800203F20012638200008F8080052
:1030300000000000203F20202020300008F8F80089
:10304000F8F80800203F003F003F200008F830C09B
:103050000008F808203F200007183F00E01008088B
:103060000810E0000F10202020100F0008F80808BA
:103070000808F000203F210101010000E0100808CD
:103080000810E0000F18242438504F0008F88888F2
:1030900088887000203F2000030C302000708808D2
:1030A000080838000038202121221C00180808F8E0
:1030B000080818000000203F2000000008F8080061
:1030C0000008F808001F202020201F000878880032
:1030D00000C83808000007380E010000F80800F8A2
:1030E0000008F800033C0700073C0300081868804C
:1030F0008068180820302C03032C30200838C800C2
:10310000C83808000000203F200000001008080810
:10311000C83808002038262120201800000000FEB2
:10312000020202000000007F40404000000C30C05E
:1031300000000000000000010638C000000202028A
:10314000FE000000004040407F000000000004023C
:103150000202040000000000000000000000000067
:103160000000000080808080808080800002020457
:10317000000000000000000000000000000080804F
:10318000808000000019242222223F2008F80080BD
:1031900080000000003F112020110E000000008080
:1031A00080800000000E112020201100000000800F
:1031B0008088F800000E112020103F200000808041
:1031C00080800000001F222222221300008080F055
:1031D000888888180020203F202000000000808080
:1031E00080808000006B94949493600008F80080C5
:1031F00080800000203F210000203F200080989820
:10320000000000000020203F20200000000000807F
:103210009898000000C08080807F000008F80000BF
:1032200080808000203F24022D302000000808F814
:10323000000000000020203F2020000080808080CF
:1032400080808000203F20003F20003F8080008061
:1032500080800000203F210000203F20000080806F
:1032600080800000001F202020201F008080008020
:103270008000000080FFA12020110E0000000080CF
:1032800080808000000E112020A0FF8080808000C0
:103290008080800020203F212000010000008080ED
:1032A000808080000033242424241900008080E0E2
:1032B000808000000000001F2020000080800000AF
:1032C00000808000001F202020103F208080800090
:1032D0000080808000010E300806010080800080A0
:1032E000008080800F300C030C300F0000808000C5
:1032F000808080000020312E0E31200080808000F0
:103300000080808080818E7018060100008080809F
:10331000808080000021302C22213000000000003D
:10332000807C020200000000003F404000000000DE
:10333000FF00000000000000FF0000000002027C0F
:10334000800000000040403F000000000006010136
:103350000202040400000000000000007C330008AA
:1033600000000020F0000000082400086C34000871
:10337000F0000020100400001824000800000000E5
:10338000000000000000000000000000000000003D
:10339000000000000000000000000000000000002D
:1033A000000000000000000000000000000000001D
:1033B000000000000000000000000000000000000D
:1033C00000A24A0400000000000000000102030403
:1033D00006070809000000000102030401020304BB
:1033E00006070809020406080000000000000000AB
:1033F0000000640000000000000000000000000069
:1034000000000000000000009A99993E0000003F73
:103410009A99993E000000000000000000000000A2
:1034200000000000000000009A99993E0000003F53
:103430009A99993E00000000000000000000000082
:10344000000000007B14AE3D000000000AD7233CC2
:10345000000000000000000000000000000000006C
:0C3460007B14AE3D0000000000000000E6
:0400000508000101ED
:00000001FF
